{
  "_format": "hh-sol-artifact-1",
  "contractName": "PriceOracle",
  "sourceName": "contracts/PriceOracle.sol",
  "abi": [
    {
      "inputs": [
        {
          "internalType": "address",
          "name": "doorAccount_",
          "type": "address"
        },
        {
          "internalType": "string",
          "name": "currency_",
          "type": "string"
        },
        {
          "internalType": "string",
          "name": "currency2_",
          "type": "string"
        }
      ],
      "stateMutability": "nonpayable",
      "type": "constructor"
    },
    {
      "inputs": [],
      "name": "amount",
      "outputs": [
        {
          "internalType": "uint256",
          "name": "",
          "type": "uint256"
        }
      ],
      "stateMutability": "view",
      "type": "function"
    },
    {
      "inputs": [],
      "name": "amount2",
      "outputs": [
        {
          "internalType": "uint256",
          "name": "",
          "type": "uint256"
        }
      ],
      "stateMutability": "view",
      "type": "function"
    },
    {
      "inputs": [],
      "name": "currency",
      "outputs": [
        {
          "internalType": "string",
          "name": "",
          "type": "string"
        }
      ],
      "stateMutability": "view",
      "type": "function"
    },
    {
      "inputs": [],
      "name": "currency2",
      "outputs": [
        {
          "internalType": "string",
          "name": "",
          "type": "string"
        }
      ],
      "stateMutability": "view",
      "type": "function"
    },
    {
      "inputs": [],
      "name": "doorAccount",
      "outputs": [
        {
          "internalType": "contract DoorAccount",
          "name": "",
          "type": "address"
        }
      ],
      "stateMutability": "view",
      "type": "function"
    },
    {
      "inputs": [
        {
          "internalType": "uint256",
          "name": "amount_",
          "type": "uint256"
        },
        {
          "internalType": "uint256",
          "name": "amount2_",
          "type": "uint256"
        }
      ],
      "name": "updateData",
      "outputs": [],
      "stateMutability": "nonpayable",
      "type": "function"
    }
  ],
  "bytecode": "0x60806040523480156200001157600080fd5b5060405162000f0238038062000f0283398181016040528101906200003791906200029c565b826000806101000a81548173ffffffffffffffffffffffffffffffffffffffff021916908373ffffffffffffffffffffffffffffffffffffffff160217905550816001908162000088919062000581565b5080600290816200009a919062000581565b5050505062000668565b6000604051905090565b600080fd5b600080fd5b600073ffffffffffffffffffffffffffffffffffffffff82169050919050565b6000620000e582620000b8565b9050919050565b620000f781620000d8565b81146200010357600080fd5b50565b6000815190506200011781620000ec565b92915050565b600080fd5b600080fd5b6000601f19601f8301169050919050565b7f4e487b7100000000000000000000000000000000000000000000000000000000600052604160045260246000fd5b620001728262000127565b810181811067ffffffffffffffff8211171562000194576200019362000138565b5b80604052505050565b6000620001a9620000a4565b9050620001b7828262000167565b919050565b600067ffffffffffffffff821115620001da57620001d962000138565b5b620001e58262000127565b9050602081019050919050565b60005b8381101562000212578082015181840152602081019050620001f5565b60008484015250505050565b6000620002356200022f84620001bc565b6200019d565b90508281526020810184848401111562000254576200025362000122565b5b62000261848285620001f2565b509392505050565b600082601f8301126200028157620002806200011d565b5b8151620002938482602086016200021e565b91505092915050565b600080600060608486031215620002b857620002b7620000ae565b5b6000620002c88682870162000106565b935050602084015167ffffffffffffffff811115620002ec57620002eb620000b3565b5b620002fa8682870162000269565b925050604084015167ffffffffffffffff8111156200031e576200031d620000b3565b5b6200032c8682870162000269565b9150509250925092565b600081519050919050565b7f4e487b7100000000000000000000000000000000000000000000000000000000600052602260045260246000fd5b600060028204905060018216806200038957607f821691505b6020821081036200039f576200039e62000341565b5b50919050565b60008190508160005260206000209050919050565b60006020601f8301049050919050565b600082821b905092915050565b600060088302620004097fffffffffffffffffffffffffffffffffffffffffffffffffffffffffffffffff82620003ca565b620004158683620003ca565b95508019841693508086168417925050509392505050565b6000819050919050565b6000819050919050565b6000620004626200045c62000456846200042d565b62000437565b6200042d565b9050919050565b6000819050919050565b6200047e8362000441565b620004966200048d8262000469565b848454620003d7565b825550505050565b600090565b620004ad6200049e565b620004ba81848462000473565b505050565b5b81811015620004e257620004d6600082620004a3565b600181019050620004c0565b5050565b601f8211156200053157620004fb81620003a5565b6200050684620003ba565b8101602085101562000516578190505b6200052e6200052585620003ba565b830182620004bf565b50505b505050565b600082821c905092915050565b6000620005566000198460080262000536565b1980831691505092915050565b600062000571838362000543565b9150826002028217905092915050565b6200058c8262000336565b67ffffffffffffffff811115620005a857620005a762000138565b5b620005b4825462000370565b620005c1828285620004e6565b600060209050601f831160018114620005f95760008415620005e4578287015190505b620005f0858262000563565b86555062000660565b601f1984166200060986620003a5565b60005b8281101562000633578489015182556001820191506020850194506020810190506200060c565b868310156200065357848901516200064f601f89168262000543565b8355505b6001600288020188555050505b505050505050565b61088a80620006786000396000f3fe608060405234801561001057600080fd5b50600436106100625760003560e01c8063057bfcc71461006757806334494df61461008557806366c46e86146100a35780639b69a3c5146100bf578063aa8c217c146100dd578063e5a6b10f146100fb575b600080fd5b61006f610119565b60405161007c9190610398565b60405180910390f35b61008d61011f565b60405161009a9190610432565b60405180910390f35b6100bd60048036038101906100b8919061048d565b610143565b005b6100c761025d565b6040516100d4919061055d565b60405180910390f35b6100e56102eb565b6040516100f29190610398565b60405180910390f35b6101036102f1565b604051610110919061055d565b60405180910390f35b60045481565b60008054906101000a900473ffffffffffffffffffffffffffffffffffffffff1681565b60008060009054906101000a900473ffffffffffffffffffffffffffffffffffffffff1673ffffffffffffffffffffffffffffffffffffffff166396d195bd6040518163ffffffff1660e01b8152600401600060405180830381865afa1580156101b1573d6000803e3d6000fd5b505050506040513d6000823e3d601f19601f820116820180604052508101906101da9190610705565b905060005b8151811015610257573373ffffffffffffffffffffffffffffffffffffffff168282815181106102125761021161074e565b5b602002602001015173ffffffffffffffffffffffffffffffffffffffff16036102445783600381905550826004819055505b808061024f906107ac565b9150506101df565b50505050565b6002805461026a90610823565b80601f016020809104026020016040519081016040528092919081815260200182805461029690610823565b80156102e35780601f106102b8576101008083540402835291602001916102e3565b820191906000526020600020905b8154815290600101906020018083116102c657829003601f168201915b505050505081565b60035481565b600180546102fe90610823565b80601f016020809104026020016040519081016040528092919081815260200182805461032a90610823565b80156103775780601f1061034c57610100808354040283529160200191610377565b820191906000526020600020905b81548152906001019060200180831161035a57829003601f168201915b505050505081565b6000819050919050565b6103928161037f565b82525050565b60006020820190506103ad6000830184610389565b92915050565b600073ffffffffffffffffffffffffffffffffffffffff82169050919050565b6000819050919050565b60006103f86103f36103ee846103b3565b6103d3565b6103b3565b9050919050565b600061040a826103dd565b9050919050565b600061041c826103ff565b9050919050565b61042c81610411565b82525050565b60006020820190506104476000830184610423565b92915050565b6000604051905090565b600080fd5b600080fd5b61046a8161037f565b811461047557600080fd5b50565b60008135905061048781610461565b92915050565b600080604083850312156104a4576104a3610457565b5b60006104b285828601610478565b92505060206104c385828601610478565b9150509250929050565b600081519050919050565b600082825260208201905092915050565b60005b838110156105075780820151818401526020810190506104ec565b60008484015250505050565b6000601f19601f8301169050919050565b600061052f826104cd565b61053981856104d8565b93506105498185602086016104e9565b61055281610513565b840191505092915050565b600060208201905081810360008301526105778184610524565b905092915050565b600080fd5b7f4e487b7100000000000000000000000000000000000000000000000000000000600052604160045260246000fd5b6105bc82610513565b810181811067ffffffffffffffff821117156105db576105da610584565b5b80604052505050565b60006105ee61044d565b90506105fa82826105b3565b919050565b600067ffffffffffffffff82111561061a57610619610584565b5b602082029050602081019050919050565b600080fd5b600061063b826103b3565b9050919050565b61064b81610630565b811461065657600080fd5b50565b60008151905061066881610642565b92915050565b600061068161067c846105ff565b6105e4565b905080838252602082019050602084028301858111156106a4576106a361062b565b5b835b818110156106cd57806106b98882610659565b8452602084019350506020810190506106a6565b5050509392505050565b600082601f8301126106ec576106eb61057f565b5b81516106fc84826020860161066e565b91505092915050565b60006020828403121561071b5761071a610457565b5b600082015167ffffffffffffffff8111156107395761073861045c565b5b610745848285016106d7565b91505092915050565b7f4e487b7100000000000000000000000000000000000000000000000000000000600052603260045260246000fd5b7f4e487b7100000000000000000000000000000000000000000000000000000000600052601160045260246000fd5b60006107b78261037f565b91507fffffffffffffffffffffffffffffffffffffffffffffffffffffffffffffffff82036107e9576107e861077d565b5b600182019050919050565b7f4e487b7100000000000000000000000000000000000000000000000000000000600052602260045260246000fd5b6000600282049050600182168061083b57607f821691505b60208210810361084e5761084d6107f4565b5b5091905056fea2646970667358221220ed40275e3fb27e041bd6f690488b49b6b419d8cb3fa38b0a1c7c86a9811d8f9664736f6c63430008140033",
  "linkReferences": {},
  "deployedLinkReferences": {}
}