{
  "_format": "hh-sol-artifact-1",
  "contractName": "oclProtocol",
  "sourceName": "contracts/oclProtocol.sol",
  "abi": [
    {
      "inputs": [
        {
          "internalType": "address",
          "name": "priceOracledAddress",
          "type": "address"
        },
        {
          "internalType": "address",
          "name": "tokenAddress",
          "type": "address"
        },
        {
          "internalType": "address",
          "name": "xChainDoor_",
          "type": "address"
        },
        {
          "internalType": "address",
          "name": "nativeBridgeDoor_",
          "type": "address"
        }
      ],
      "stateMutability": "nonpayable",
      "type": "constructor"
    },
    {
      "anonymous": false,
      "inputs": [
        {
          "indexed": false,
          "internalType": "uint256",
          "name": "amount",
          "type": "uint256"
        }
      ],
      "name": "AmmLiquidate",
      "type": "event"
    },
    {
      "inputs": [],
      "name": "borrow",
      "outputs": [],
      "stateMutability": "payable",
      "type": "function"
    },
    {
      "inputs": [
        {
          "internalType": "address",
          "name": "",
          "type": "address"
        },
        {
          "internalType": "uint256",
          "name": "",
          "type": "uint256"
        }
      ],
      "name": "borrowDataByAddress",
      "outputs": [
        {
          "internalType": "uint256",
          "name": "",
          "type": "uint256"
        }
      ],
      "stateMutability": "view",
      "type": "function"
    },
    {
      "inputs": [
        {
          "internalType": "uint256",
          "name": "",
          "type": "uint256"
        }
      ],
      "name": "borrowedEntries",
      "outputs": [
        {
          "internalType": "address",
          "name": "borrower",
          "type": "address"
        },
        {
          "internalType": "uint256",
          "name": "startTimestamp",
          "type": "uint256"
        },
        {
          "internalType": "uint256",
          "name": "xrpAmount",
          "type": "uint256"
        },
        {
          "internalType": "uint256",
          "name": "txtAmount",
          "type": "uint256"
        },
        {
          "internalType": "uint256",
          "name": "xrpReward",
          "type": "uint256"
        },
        {
          "internalType": "bool",
          "name": "isLiquidated",
          "type": "bool"
        }
      ],
      "stateMutability": "view",
      "type": "function"
    },
    {
      "inputs": [],
      "name": "claimReward",
      "outputs": [],
      "stateMutability": "nonpayable",
      "type": "function"
    },
    {
      "inputs": [
        {
          "internalType": "uint256",
          "name": "borrowId",
          "type": "uint256"
        }
      ],
      "name": "closeBorrow",
      "outputs": [],
      "stateMutability": "nonpayable",
      "type": "function"
    },
    {
      "inputs": [],
      "name": "collateralRatio",
      "outputs": [
        {
          "internalType": "uint256",
          "name": "",
          "type": "uint256"
        }
      ],
      "stateMutability": "view",
      "type": "function"
    },
    {
      "inputs": [],
      "name": "curTxTReward",
      "outputs": [
        {
          "internalType": "uint256",
          "name": "",
          "type": "uint256"
        }
      ],
      "stateMutability": "view",
      "type": "function"
    },
    {
      "inputs": [
        {
          "internalType": "address",
          "name": "borrower",
          "type": "address"
        }
      ],
      "name": "getBorrowData",
      "outputs": [
        {
          "internalType": "uint256[]",
          "name": "",
          "type": "uint256[]"
        }
      ],
      "stateMutability": "view",
      "type": "function"
    },
    {
      "inputs": [
        {
          "internalType": "uint256",
          "name": "id",
          "type": "uint256"
        }
      ],
      "name": "getBorrowId",
      "outputs": [
        {
          "components": [
            {
              "internalType": "address",
              "name": "borrower",
              "type": "address"
            },
            {
              "internalType": "uint256",
              "name": "startTimestamp",
              "type": "uint256"
            },
            {
              "internalType": "uint256",
              "name": "xrpAmount",
              "type": "uint256"
            },
            {
              "internalType": "uint256",
              "name": "txtAmount",
              "type": "uint256"
            },
            {
              "internalType": "uint256",
              "name": "xrpReward",
              "type": "uint256"
            },
            {
              "internalType": "bool",
              "name": "isLiquidated",
              "type": "bool"
            }
          ],
          "internalType": "struct oclProtocol.borrowData",
          "name": "",
          "type": "tuple"
        }
      ],
      "stateMutability": "view",
      "type": "function"
    },
    {
      "inputs": [
        {
          "internalType": "address",
          "name": "owner",
          "type": "address"
        }
      ],
      "name": "getClaimAmount",
      "outputs": [
        {
          "internalType": "uint256",
          "name": "",
          "type": "uint256"
        }
      ],
      "stateMutability": "view",
      "type": "function"
    },
    {
      "inputs": [
        {
          "internalType": "address",
          "name": "owner",
          "type": "address"
        }
      ],
      "name": "getLentAmountByAddress",
      "outputs": [
        {
          "internalType": "uint256",
          "name": "",
          "type": "uint256"
        }
      ],
      "stateMutability": "view",
      "type": "function"
    },
    {
      "inputs": [],
      "name": "lastBorrowId",
      "outputs": [
        {
          "internalType": "uint256",
          "name": "",
          "type": "uint256"
        }
      ],
      "stateMutability": "view",
      "type": "function"
    },
    {
      "inputs": [
        {
          "internalType": "address",
          "name": "",
          "type": "address"
        }
      ],
      "name": "lastClaim",
      "outputs": [
        {
          "internalType": "uint256",
          "name": "",
          "type": "uint256"
        }
      ],
      "stateMutability": "view",
      "type": "function"
    },
    {
      "inputs": [],
      "name": "lastRewardBatchId",
      "outputs": [
        {
          "internalType": "uint256",
          "name": "",
          "type": "uint256"
        }
      ],
      "stateMutability": "view",
      "type": "function"
    },
    {
      "inputs": [],
      "name": "lastRewardTimeStamp",
      "outputs": [
        {
          "internalType": "uint256",
          "name": "",
          "type": "uint256"
        }
      ],
      "stateMutability": "view",
      "type": "function"
    },
    {
      "inputs": [
        {
          "internalType": "uint256",
          "name": "lendingAmount",
          "type": "uint256"
        }
      ],
      "name": "lend",
      "outputs": [],
      "stateMutability": "nonpayable",
      "type": "function"
    },
    {
      "inputs": [
        {
          "internalType": "address",
          "name": "",
          "type": "address"
        }
      ],
      "name": "lendBalances",
      "outputs": [
        {
          "internalType": "uint256",
          "name": "",
          "type": "uint256"
        }
      ],
      "stateMutability": "view",
      "type": "function"
    },
    {
      "inputs": [
        {
          "internalType": "uint256",
          "name": "borrowId",
          "type": "uint256"
        },
        {
          "internalType": "uint256",
          "name": "claimId",
          "type": "uint256"
        }
      ],
      "name": "liquidate",
      "outputs": [],
      "stateMutability": "nonpayable",
      "type": "function"
    },
    {
      "inputs": [
        {
          "internalType": "uint256",
          "name": "claimId",
          "type": "uint256"
        }
      ],
      "name": "liquidateRewards",
      "outputs": [],
      "stateMutability": "nonpayable",
      "type": "function"
    },
    {
      "inputs": [],
      "name": "loanDurationBlocks",
      "outputs": [
        {
          "internalType": "uint256",
          "name": "",
          "type": "uint256"
        }
      ],
      "stateMutability": "view",
      "type": "function"
    },
    {
      "inputs": [
        {
          "internalType": "uint256",
          "name": "",
          "type": "uint256"
        }
      ],
      "name": "rewardClaimAmounts",
      "outputs": [
        {
          "internalType": "uint256",
          "name": "",
          "type": "uint256"
        }
      ],
      "stateMutability": "view",
      "type": "function"
    },
    {
      "inputs": [],
      "name": "rewardsToLiquidate",
      "outputs": [
        {
          "internalType": "uint256",
          "name": "",
          "type": "uint256"
        }
      ],
      "stateMutability": "view",
      "type": "function"
    },
    {
      "inputs": [],
      "name": "txtLocked",
      "outputs": [
        {
          "internalType": "uint256",
          "name": "",
          "type": "uint256"
        }
      ],
      "stateMutability": "view",
      "type": "function"
    },
    {
      "inputs": [],
      "name": "txtReward",
      "outputs": [
        {
          "internalType": "uint256",
          "name": "",
          "type": "uint256"
        }
      ],
      "stateMutability": "view",
      "type": "function"
    },
    {
      "inputs": [
        {
          "internalType": "uint256",
          "name": "withdrawAmount",
          "type": "uint256"
        }
      ],
      "name": "withdraw",
      "outputs": [],
      "stateMutability": "nonpayable",
      "type": "function"
    },
    {
      "inputs": [],
      "name": "xChainDoor",
      "outputs": [
        {
          "internalType": "address",
          "name": "",
          "type": "address"
        }
      ],
      "stateMutability": "view",
      "type": "function"
    },
    {
      "inputs": [],
      "name": "yieldPT",
      "outputs": [
        {
          "internalType": "uint256",
          "name": "",
          "type": "uint256"
        }
      ],
      "stateMutability": "view",
      "type": "function"
    }
  ],
  "bytecode": "0x60806040526103e8600e556007600f55600f6010553480156200002157600080fd5b5060405162003b6a38038062003b6a83398181016040528101906200004791906200023a565b836000806101000a81548173ffffffffffffffffffffffffffffffffffffffff021916908373ffffffffffffffffffffffffffffffffffffffff16021790555082600160006101000a81548173ffffffffffffffffffffffffffffffffffffffff021916908373ffffffffffffffffffffffffffffffffffffffff160217905550600060028190555060006003819055506000600b819055506000600c819055506000600581905550600060048190555042600d8190555081601160006101000a81548173ffffffffffffffffffffffffffffffffffffffff021916908373ffffffffffffffffffffffffffffffffffffffff1602179055506000600660003073ffffffffffffffffffffffffffffffffffffffff1673ffffffffffffffffffffffffffffffffffffffff1681526020019081526020016000208190555080601260006101000a81548173ffffffffffffffffffffffffffffffffffffffff021916908373ffffffffffffffffffffffffffffffffffffffff16021790555050505050620002ac565b600080fd5b600073ffffffffffffffffffffffffffffffffffffffff82169050919050565b60006200020282620001d5565b9050919050565b6200021481620001f5565b81146200022057600080fd5b50565b600081519050620002348162000209565b92915050565b60008060008060808587031215620002575762000256620001d0565b5b6000620002678782880162000223565b94505060206200027a8782880162000223565b93505060406200028d8782880162000223565b9250506060620002a08782880162000223565b91505092959194509250565b6138ae80620002bc6000396000f3fe60806040526004361061019c5760003560e01c80639ee053a9116100ec578063c5d40b8a1161008a578063d69772a511610064578063d69772a5146105f5578063dde070e814610620578063e68d35691461065d578063fb61b8fa146106675761019c565b8063c5d40b8a14610552578063cf19a5af1461058f578063d296d1f1146105cc5761019c565b8063a6aa57ce116100c6578063a6aa57ce146104bc578063b1d41e76146104e5578063b4eae1cb14610510578063b88a802f1461053b5761019c565b80639ee053a914610429578063a02c109614610454578063a67931df1461047f5761019c565b80632e8bbf64116101595780635431a43a116101335780635431a43a14610349578063546a7a5e146103865780635513391d146103c35780635c16e15e146103ec5761019c565b80632e8bbf64146102b8578063356c7284146102e15780633710704c1461030c5761019c565b80630c399a1d146101a15780630cf1f100146101e357806318dcecc11461020e578063197144c6146102395780631eb08d3e146102645780632e1a7d4d1461028f575b600080fd5b3480156101ad57600080fd5b506101c860048036038101906101c39190612a62565b610692565b6040516101da96959493929190612afa565b60405180910390f35b3480156101ef57600080fd5b506101f86106fb565b6040516102059190612b5b565b60405180910390f35b34801561021a57600080fd5b50610223610721565b6040516102309190612b76565b60405180910390f35b34801561024557600080fd5b5061024e610727565b60405161025b9190612b76565b60405180910390f35b34801561027057600080fd5b5061027961072d565b6040516102869190612b76565b60405180910390f35b34801561029b57600080fd5b506102b660048036038101906102b19190612a62565b610733565b005b3480156102c457600080fd5b506102df60048036038101906102da9190612a62565b610b26565b005b3480156102ed57600080fd5b506102f6611092565b6040516103039190612b76565b60405180910390f35b34801561031857600080fd5b50610333600480360381019061032e9190612a62565b611098565b6040516103409190612c39565b60405180910390f35b34801561035557600080fd5b50610370600480360381019061036b9190612c80565b61115e565b60405161037d9190612b76565b60405180910390f35b34801561039257600080fd5b506103ad60048036038101906103a89190612a62565b61118f565b6040516103ba9190612b76565b60405180910390f35b3480156103cf57600080fd5b506103ea60048036038101906103e59190612a62565b6111a7565b005b3480156103f857600080fd5b50610413600480360381019061040e9190612cc0565b6114a4565b6040516104209190612b76565b60405180910390f35b34801561043557600080fd5b5061043e6114bc565b60405161044b9190612b76565b60405180910390f35b34801561046057600080fd5b506104696114c2565b6040516104769190612b76565b60405180910390f35b34801561048b57600080fd5b506104a660048036038101906104a19190612cc0565b6114c8565b6040516104b39190612b76565b60405180910390f35b3480156104c857600080fd5b506104e360048036038101906104de9190612a62565b6114e0565b005b3480156104f157600080fd5b506104fa61179f565b6040516105079190612b76565b60405180910390f35b34801561051c57600080fd5b506105256117a5565b6040516105329190612b76565b60405180910390f35b34801561054757600080fd5b506105506117ab565b005b34801561055e57600080fd5b5061057960048036038101906105749190612cc0565b611cf5565b6040516105869190612d9c565b60405180910390f35b34801561059b57600080fd5b506105b660048036038101906105b19190612cc0565b611d8c565b6040516105c39190612b76565b60405180910390f35b3480156105d857600080fd5b506105f360048036038101906105ee9190612dbe565b611dd5565b005b34801561060157600080fd5b5061060a6122b9565b6040516106179190612b76565b60405180910390f35b34801561062c57600080fd5b5061064760048036038101906106429190612cc0565b6122bf565b6040516106549190612b76565b60405180910390f35b61066561250b565b005b34801561067357600080fd5b5061067c6129c4565b6040516106899190612b76565b60405180910390f35b60096020528060005260406000206000915090508060000160009054906101000a900473ffffffffffffffffffffffffffffffffffffffff16908060010154908060020154908060030154908060040154908060050160009054906101000a900460ff16905086565b601160009054906101000a900473ffffffffffffffffffffffffffffffffffffffff1681565b60055481565b600e5481565b60105481565b80600860003373ffffffffffffffffffffffffffffffffffffffff1673ffffffffffffffffffffffffffffffffffffffff1681526020019081526020016000205410156107b5576040517f08c379a00000000000000000000000000000000000000000000000000000000081526004016107ac90612e81565b60405180910390fd5b600c54600660003373ffffffffffffffffffffffffffffffffffffffff1673ffffffffffffffffffffffffffffffffffffffff1681526020019081526020016000205410610838576040517f08c379a000000000000000000000000000000000000000000000000000000000815260040161082f90612f13565b60405180910390fd5b600354600254600160009054906101000a900473ffffffffffffffffffffffffffffffffffffffff1673ffffffffffffffffffffffffffffffffffffffff166370a08231306040518263ffffffff1660e01b81526004016108999190612b5b565b602060405180830381865afa1580156108b6573d6000803e3d6000fd5b505050506040513d601f19601f820116820180604052508101906108da9190612f48565b6108e49190612fa4565b6108ee9190612fd8565b816108f9919061300c565b600354600160009054906101000a900473ffffffffffffffffffffffffffffffffffffffff1673ffffffffffffffffffffffffffffffffffffffff166370a08231306040518263ffffffff1660e01b81526004016109579190612b5b565b602060405180830381865afa158015610974573d6000803e3d6000fd5b505050506040513d601f19601f820116820180604052508101906109989190612f48565b6109a29190612fd8565b600860003373ffffffffffffffffffffffffffffffffffffffff1673ffffffffffffffffffffffffffffffffffffffff168152602001908152602001600020546109ec919061300c565b11610a2c576040517f08c379a0000000000000000000000000000000000000000000000000000000008152600401610a23906130c0565b60405180910390fd5b600160009054906101000a900473ffffffffffffffffffffffffffffffffffffffff1673ffffffffffffffffffffffffffffffffffffffff1663a9059cbb33836040518363ffffffff1660e01b8152600401610a899291906130e0565b6020604051808303816000875af1158015610aa8573d6000803e3d6000fd5b505050506040513d601f19601f82011682018060405250810190610acc9190613135565b5080600860003373ffffffffffffffffffffffffffffffffffffffff1673ffffffffffffffffffffffffffffffffffffffff1681526020019081526020016000206000828254610b1c9190612fd8565b9250508190555050565b6009600082815260200190815260200160002060050160009054906101000a900460ff1615610b8a576040517f08c379a0000000000000000000000000000000000000000000000000000000008152600401610b81906131ae565b60405180910390fd5b60008060009054906101000a900473ffffffffffffffffffffffffffffffffffffffff1673ffffffffffffffffffffffffffffffffffffffff1663aa8c217c6040518163ffffffff1660e01b8152600401602060405180830381865afa158015610bf8573d6000803e3d6000fd5b505050506040513d601f19601f82011682018060405250810190610c1c9190612f48565b60008054906101000a900473ffffffffffffffffffffffffffffffffffffffff1673ffffffffffffffffffffffffffffffffffffffff1663057bfcc76040518163ffffffff1660e01b8152600401602060405180830381865afa158015610c87573d6000803e3d6000fd5b505050506040513d601f19601f82011682018060405250810190610cab9190612f48565b6009600085815260200190815260200160002060040154610ccc919061300c565b610cd691906131fd565b90506009600083815260200190815260200160002060030154600160009054906101000a900473ffffffffffffffffffffffffffffffffffffffff1673ffffffffffffffffffffffffffffffffffffffff1663dd62ed3e33306040518363ffffffff1660e01b8152600401610d4c92919061322e565b602060405180830381865afa158015610d69573d6000803e3d6000fd5b505050506040513d601f19601f82011682018060405250810190610d8d9190612f48565b1015610dce576040517f08c379a0000000000000000000000000000000000000000000000000000000008152600401610dc5906132a3565b60405180910390fd5b6009600083815260200190815260200160002060030154600160009054906101000a900473ffffffffffffffffffffffffffffffffffffffff1673ffffffffffffffffffffffffffffffffffffffff166370a08231336040518263ffffffff1660e01b8152600401610e409190612b5b565b602060405180830381865afa158015610e5d573d6000803e3d6000fd5b505050506040513d601f19601f82011682018060405250810190610e819190612f48565b1015610ec2576040517f08c379a0000000000000000000000000000000000000000000000000000000008152600401610eb99061330f565b60405180910390fd5b600160009054906101000a900473ffffffffffffffffffffffffffffffffffffffff1673ffffffffffffffffffffffffffffffffffffffff166323b872dd333060096000878152602001908152602001600020600301546040518463ffffffff1660e01b8152600401610f379392919061332f565b6020604051808303816000875af1158015610f56573d6000803e3d6000fd5b505050506040513d601f19601f82011682018060405250810190610f7a9190613135565b1561108e578060036000828254610f919190612fa4565b925050819055508060056000828254610faa9190612fa4565b9250508190555060016009600084815260200190815260200160002060050160006101000a81548160ff0219169083151502179055506009600083815260200190815260200160002060040154600460008282546110089190612fa4565b925050819055503373ffffffffffffffffffffffffffffffffffffffff166108fc600960008581526020019081526020016000206004015460096000868152602001908152602001600020600201546110619190612fd8565b9081150290604051600060405180830381858888f1935050505015801561108c573d6000803e3d6000fd5b505b5050565b600d5481565b6110a06129ca565b600960008381526020019081526020016000206040518060c00160405290816000820160009054906101000a900473ffffffffffffffffffffffffffffffffffffffff1673ffffffffffffffffffffffffffffffffffffffff1673ffffffffffffffffffffffffffffffffffffffff168152602001600182015481526020016002820154815260200160038201548152602001600482015481526020016005820160009054906101000a900460ff1615151515815250509050919050565b600a602052816000526040600020818154811061117a57600080fd5b90600052602060002001600091509150505481565b60076020528060005260406000206000915090505481565b60008060009054906101000a900473ffffffffffffffffffffffffffffffffffffffff1673ffffffffffffffffffffffffffffffffffffffff166334494df66040518163ffffffff1660e01b8152600401602060405180830381865afa158015611215573d6000803e3d6000fd5b505050506040513d601f19601f8201168201806040525081019061123991906133a4565b73ffffffffffffffffffffffffffffffffffffffff166396d195bd6040518163ffffffff1660e01b8152600401600060405180830381865afa158015611283573d6000803e3d6000fd5b505050506040513d6000823e3d601f19601f820116820180604052508101906112ac919061353f565b90506000805b8251811015611320573373ffffffffffffffffffffffffffffffffffffffff168382815181106112e5576112e4613588565b5b602002602001015173ffffffffffffffffffffffffffffffffffffffff160361130d57600191505b8080611318906135b7565b9150506112b2565b5080611361576040517f08c379a00000000000000000000000000000000000000000000000000000000081526004016113589061364b565b60405180910390fd5b6000600454116113a6576040517f08c379a000000000000000000000000000000000000000000000000000000000815260040161139d906136b7565b60405180910390fd5b601260009054906101000a900473ffffffffffffffffffffffffffffffffffffffff1673ffffffffffffffffffffffffffffffffffffffff1663c74e907b600454601160009054906101000a900473ffffffffffffffffffffffffffffffffffffffff16866004546040518563ffffffff1660e01b815260040161142c939291906136d7565b6000604051808303818588803b15801561144557600080fd5b505af1158015611459573d6000803e3d6000fd5b50505050507f2523dddf18f54c17b62f39b8ac837bd93723309490356c242381c2aab8d121e760045460405161148f9190612b76565b60405180910390a16000600481905550505050565b60066020528060005260406000206000915090505481565b600c5481565b60045481565b60086020528060005260406000206000915090505481565b80600160009054906101000a900473ffffffffffffffffffffffffffffffffffffffff1673ffffffffffffffffffffffffffffffffffffffff1663dd62ed3e33306040518363ffffffff1660e01b815260040161153e92919061322e565b602060405180830381865afa15801561155b573d6000803e3d6000fd5b505050506040513d601f19601f8201168201806040525081019061157f9190612f48565b10156115c0576040517f08c379a00000000000000000000000000000000000000000000000000000000081526004016115b7906132a3565b60405180910390fd5b80600160009054906101000a900473ffffffffffffffffffffffffffffffffffffffff1673ffffffffffffffffffffffffffffffffffffffff166370a08231336040518263ffffffff1660e01b815260040161161c9190612b5b565b602060405180830381865afa158015611639573d6000803e3d6000fd5b505050506040513d601f19601f8201168201806040525081019061165d9190612f48565b101561169e576040517f08c379a00000000000000000000000000000000000000000000000000000000081526004016116959061330f565b60405180910390fd5b600160009054906101000a900473ffffffffffffffffffffffffffffffffffffffff1673ffffffffffffffffffffffffffffffffffffffff166323b872dd3330846040518463ffffffff1660e01b81526004016116fd9392919061332f565b6020604051808303816000875af115801561171c573d6000803e3d6000fd5b505050506040513d601f19601f820116820180604052508101906117409190613135565b1561179c5780600860003373ffffffffffffffffffffffffffffffffffffffff1673ffffffffffffffffffffffffffffffffffffffff16815260200190815260200160002060008282546117949190612fa4565b925050819055505b50565b60025481565b600f5481565b6000600860003373ffffffffffffffffffffffffffffffffffffffff1673ffffffffffffffffffffffffffffffffffffffff16815260200190815260200160002054111561182e576040517f08c379a00000000000000000000000000000000000000000000000000000000081526004016118259061375a565b60405180910390fd5b610e10600d544261183f9190612fd8565b1061188a576001600c60008282546118579190612fa4565b9250508190555060055460076000600c54815260200190815260200160002081905550600060058190555042600d819055505b6000600660003373ffffffffffffffffffffffffffffffffffffffff1673ffffffffffffffffffffffffffffffffffffffff16815260200190815260200160002054600c546118d99190612fd8565b9050601e8111156118e957601e90505b6000806001600660003373ffffffffffffffffffffffffffffffffffffffff1673ffffffffffffffffffffffffffffffffffffffff168152602001908152602001600020546119389190612fa4565b90505b82600660003373ffffffffffffffffffffffffffffffffffffffff1673ffffffffffffffffffffffffffffffffffffffff168152602001908152602001600020546119869190612fa4565b8111611aca576007600082815260200190815260200160002054600354600254600160009054906101000a900473ffffffffffffffffffffffffffffffffffffffff1673ffffffffffffffffffffffffffffffffffffffff166370a08231306040518263ffffffff1660e01b8152600401611a019190612b5b565b602060405180830381865afa158015611a1e573d6000803e3d6000fd5b505050506040513d601f19601f82011682018060405250810190611a429190612f48565b600860003373ffffffffffffffffffffffffffffffffffffffff1673ffffffffffffffffffffffffffffffffffffffff16815260200190815260200160002054611a8c91906131fd565b611a969190612fa4565b611aa09190612fd8565b611aaa919061300c565b82611ab59190612fa4565b91508080611ac2906135b7565b91505061193b565b5080600160009054906101000a900473ffffffffffffffffffffffffffffffffffffffff1673ffffffffffffffffffffffffffffffffffffffff166370a08231306040518263ffffffff1660e01b8152600401611b279190612b5b565b602060405180830381865afa158015611b44573d6000803e3d6000fd5b505050506040513d601f19601f82011682018060405250810190611b689190612f48565b1015611ba9576040517f08c379a0000000000000000000000000000000000000000000000000000000008152600401611ba0906137c6565b60405180910390fd5b81600660003373ffffffffffffffffffffffffffffffffffffffff1673ffffffffffffffffffffffffffffffffffffffff16815260200190815260200160002054611bf49190612fa4565b600660003373ffffffffffffffffffffffffffffffffffffffff1673ffffffffffffffffffffffffffffffffffffffff168152602001908152602001600020819055508060036000828254611c499190612fd8565b92505081905550600160009054906101000a900473ffffffffffffffffffffffffffffffffffffffff1673ffffffffffffffffffffffffffffffffffffffff1663a9059cbb33836040518363ffffffff1660e01b8152600401611cad9291906130e0565b6020604051808303816000875af1158015611ccc573d6000803e3d6000fd5b505050506040513d601f19601f82011682018060405250810190611cf09190613135565b505050565b6060600a60008373ffffffffffffffffffffffffffffffffffffffff1673ffffffffffffffffffffffffffffffffffffffff168152602001908152602001600020805480602002602001604051908101604052809291908181526020018280548015611d8057602002820191906000526020600020905b815481526020019060010190808311611d6c575b50505050509050919050565b6000600860008373ffffffffffffffffffffffffffffffffffffffff1673ffffffffffffffffffffffffffffffffffffffff168152602001908152602001600020549050919050565b6009600083815260200190815260200160002060050160009054906101000a900460ff1615611e39576040517f08c379a0000000000000000000000000000000000000000000000000000000008152600401611e30906131ae565b60405180910390fd5b60008060009054906101000a900473ffffffffffffffffffffffffffffffffffffffff1673ffffffffffffffffffffffffffffffffffffffff1663aa8c217c6040518163ffffffff1660e01b8152600401602060405180830381865afa158015611ea7573d6000803e3d6000fd5b505050506040513d601f19601f82011682018060405250810190611ecb9190612f48565b60008054906101000a900473ffffffffffffffffffffffffffffffffffffffff1673ffffffffffffffffffffffffffffffffffffffff1663057bfcc76040518163ffffffff1660e01b8152600401602060405180830381865afa158015611f36573d6000803e3d6000fd5b505050506040513d601f19601f82011682018060405250810190611f5a9190612f48565b6009600086815260200190815260200160002060020154611f7b919061300c565b611f8591906131fd565b905060008060009054906101000a900473ffffffffffffffffffffffffffffffffffffffff1673ffffffffffffffffffffffffffffffffffffffff1663aa8c217c6040518163ffffffff1660e01b8152600401602060405180830381865afa158015611ff5573d6000803e3d6000fd5b505050506040513d601f19601f820116820180604052508101906120199190612f48565b60008054906101000a900473ffffffffffffffffffffffffffffffffffffffff1673ffffffffffffffffffffffffffffffffffffffff1663057bfcc76040518163ffffffff1660e01b8152600401602060405180830381865afa158015612084573d6000803e3d6000fd5b505050506040513d601f19601f820116820180604052508101906120a89190612f48565b60096000878152602001908152602001600020600401546120c9919061300c565b6120d391906131fd565b905081600f546120e3919061300c565b6064826120f0919061300c565b108061211f57506201a5e060096000868152602001908152602001600020600101544261211d9190612fd8565b115b156122b35780600360008282546121369190612fa4565b92505081905550806005600082825461214f9190612fa4565b9250508190555060016009600086815260200190815260200160002060050160006101000a81548160ff021916908315150217905550601260009054906101000a900473ffffffffffffffffffffffffffffffffffffffff1673ffffffffffffffffffffffffffffffffffffffff1663c74e907b6009600087815260200190815260200160002060020154601160009054906101000a900473ffffffffffffffffffffffffffffffffffffffff1686600960008a8152602001908152602001600020600201546040518563ffffffff1660e01b8152600401612233939291906136d7565b6000604051808303818588803b15801561224c57600080fd5b505af1158015612260573d6000803e3d6000fd5b50505050507f2523dddf18f54c17b62f39b8ac837bd93723309490356c242381c2aab8d121e760096000868152602001908152602001600020600201546040516122aa9190612b76565b60405180910390a15b50505050565b600b5481565b600080600660003373ffffffffffffffffffffffffffffffffffffffff1673ffffffffffffffffffffffffffffffffffffffff16815260200190815260200160002054600c5461230f9190612fd8565b9050601e81111561231f57601e90505b6000806001600660008773ffffffffffffffffffffffffffffffffffffffff1673ffffffffffffffffffffffffffffffffffffffff1681526020019081526020016000205461236e9190612fa4565b90505b82600660008773ffffffffffffffffffffffffffffffffffffffff1673ffffffffffffffffffffffffffffffffffffffff168152602001908152602001600020546123bc9190612fa4565b8111612500576007600082815260200190815260200160002054600354600254600160009054906101000a900473ffffffffffffffffffffffffffffffffffffffff1673ffffffffffffffffffffffffffffffffffffffff166370a08231306040518263ffffffff1660e01b81526004016124379190612b5b565b602060405180830381865afa158015612454573d6000803e3d6000fd5b505050506040513d601f19601f820116820180604052508101906124789190612f48565b600860008a73ffffffffffffffffffffffffffffffffffffffff1673ffffffffffffffffffffffffffffffffffffffff168152602001908152602001600020546124c291906131fd565b6124cc9190612fa4565b6124d69190612fd8565b6124e0919061300c565b826124eb9190612fa4565b915080806124f8906135b7565b915050612371565b508092505050919050565b60008060009054906101000a900473ffffffffffffffffffffffffffffffffffffffff1673ffffffffffffffffffffffffffffffffffffffff1663aa8c217c6040518163ffffffff1660e01b8152600401602060405180830381865afa158015612579573d6000803e3d6000fd5b505050506040513d601f19601f8201168201806040525081019061259d9190612f48565b60008054906101000a900473ffffffffffffffffffffffffffffffffffffffff1673ffffffffffffffffffffffffffffffffffffffff1663057bfcc76040518163ffffffff1660e01b8152600401602060405180830381865afa158015612608573d6000803e3d6000fd5b505050506040513d601f19601f8201168201806040525081019061262c9190612f48565b34612637919061300c565b61264191906131fd565b90506000606482601054612655919061300c565b61265f91906131fd565b90506000606434601054612673919061300c565b61267d91906131fd565b9050600354600160009054906101000a900473ffffffffffffffffffffffffffffffffffffffff1673ffffffffffffffffffffffffffffffffffffffff166370a08231306040518263ffffffff1660e01b81526004016126dd9190612b5b565b602060405180830381865afa1580156126fa573d6000803e3d6000fd5b505050506040513d601f19601f8201168201806040525081019061271e9190612f48565b6127289190612fd8565b82846127349190612fd8565b1115612775576040517f08c379a000000000000000000000000000000000000000000000000000000000815260040161276c90613858565b60405180910390fd5b600160009054906101000a900473ffffffffffffffffffffffffffffffffffffffff1673ffffffffffffffffffffffffffffffffffffffff1663a9059cbb3384866127c09190612fd8565b6040518363ffffffff1660e01b81526004016127dd9291906130e0565b6020604051808303816000875af11580156127fc573d6000803e3d6000fd5b505050506040513d601f19601f820116820180604052508101906128209190613135565b506001600b60008282546128349190612fa4565b925050819055506040518060c001604052803373ffffffffffffffffffffffffffffffffffffffff168152602001428152602001348152602001838561287a9190612fd8565b81526020018281526020016000151581525060096000600b54815260200190815260200160002060008201518160000160006101000a81548173ffffffffffffffffffffffffffffffffffffffff021916908373ffffffffffffffffffffffffffffffffffffffff1602179055506020820151816001015560408201518160020155606082015181600301556080820151816004015560a08201518160050160006101000a81548160ff021916908315150217905550905050600a60003373ffffffffffffffffffffffffffffffffffffffff1673ffffffffffffffffffffffffffffffffffffffff168152602001908152602001600020600b54908060018154018082558091505060019003906000526020600020016000909190919091505581836129a79190612fd8565b600260008282546129b89190612fa4565b92505081905550505050565b60035481565b6040518060c00160405280600073ffffffffffffffffffffffffffffffffffffffff168152602001600081526020016000815260200160008152602001600081526020016000151581525090565b6000604051905090565b600080fd5b600080fd5b6000819050919050565b612a3f81612a2c565b8114612a4a57600080fd5b50565b600081359050612a5c81612a36565b92915050565b600060208284031215612a7857612a77612a22565b5b6000612a8684828501612a4d565b91505092915050565b600073ffffffffffffffffffffffffffffffffffffffff82169050919050565b6000612aba82612a8f565b9050919050565b612aca81612aaf565b82525050565b612ad981612a2c565b82525050565b60008115159050919050565b612af481612adf565b82525050565b600060c082019050612b0f6000830189612ac1565b612b1c6020830188612ad0565b612b296040830187612ad0565b612b366060830186612ad0565b612b436080830185612ad0565b612b5060a0830184612aeb565b979650505050505050565b6000602082019050612b706000830184612ac1565b92915050565b6000602082019050612b8b6000830184612ad0565b92915050565b612b9a81612aaf565b82525050565b612ba981612a2c565b82525050565b612bb881612adf565b82525050565b60c082016000820151612bd46000850182612b91565b506020820151612be76020850182612ba0565b506040820151612bfa6040850182612ba0565b506060820151612c0d6060850182612ba0565b506080820151612c206080850182612ba0565b5060a0820151612c3360a0850182612baf565b50505050565b600060c082019050612c4e6000830184612bbe565b92915050565b612c5d81612aaf565b8114612c6857600080fd5b50565b600081359050612c7a81612c54565b92915050565b60008060408385031215612c9757612c96612a22565b5b6000612ca585828601612c6b565b9250506020612cb685828601612a4d565b9150509250929050565b600060208284031215612cd657612cd5612a22565b5b6000612ce484828501612c6b565b91505092915050565b600081519050919050565b600082825260208201905092915050565b6000819050602082019050919050565b6000612d258383612ba0565b60208301905092915050565b6000602082019050919050565b6000612d4982612ced565b612d538185612cf8565b9350612d5e83612d09565b8060005b83811015612d8f578151612d768882612d19565b9750612d8183612d31565b925050600181019050612d62565b5085935050505092915050565b60006020820190508181036000830152612db68184612d3e565b905092915050565b60008060408385031215612dd557612dd4612a22565b5b6000612de385828601612a4d565b9250506020612df485828601612a4d565b9150509250929050565b600082825260208201905092915050565b7f5769746864726177696e67206d6f7265207468656e20796f75722062616c616e60008201527f6365210000000000000000000000000000000000000000000000000000000000602082015250565b6000612e6b602383612dfe565b9150612e7682612e0f565b604082019050919050565b60006020820190508181036000830152612e9a81612e5e565b9050919050565b7f436c61696d20796f75722072657761726473206265666f72652077697468647260008201527f6177696e67210000000000000000000000000000000000000000000000000000602082015250565b6000612efd602683612dfe565b9150612f0882612ea1565b604082019050919050565b60006020820190508181036000830152612f2c81612ef0565b9050919050565b600081519050612f4281612a36565b92915050565b600060208284031215612f5e57612f5d612a22565b5b6000612f6c84828501612f33565b91505092915050565b7f4e487b7100000000000000000000000000000000000000000000000000000000600052601160045260246000fd5b6000612faf82612a2c565b9150612fba83612a2c565b9250828201905080821115612fd257612fd1612f75565b5b92915050565b6000612fe382612a2c565b9150612fee83612a2c565b925082820390508181111561300657613005612f75565b5b92915050565b600061301782612a2c565b915061302283612a2c565b925082820261303081612a2c565b9150828204841483151761304757613046612f75565b5b5092915050565b7f5769746864726177696e67206d6f7265207468656e2063757272656e7420706f60008201527f737369626c6520796f7572207374616b65000000000000000000000000000000602082015250565b60006130aa603183612dfe565b91506130b58261304e565b604082019050919050565b600060208201905081810360008301526130d98161309d565b9050919050565b60006040820190506130f56000830185612ac1565b6131026020830184612ad0565b9392505050565b61311281612adf565b811461311d57600080fd5b50565b60008151905061312f81613109565b92915050565b60006020828403121561314b5761314a612a22565b5b600061315984828501613120565b91505092915050565b7f6c6f616e20616c726561647920636c6f73656421000000000000000000000000600082015250565b6000613198601483612dfe565b91506131a382613162565b602082019050919050565b600060208201905081810360008301526131c78161318b565b9050919050565b7f4e487b7100000000000000000000000000000000000000000000000000000000600052601260045260246000fd5b600061320882612a2c565b915061321383612a2c565b925082613223576132226131ce565b5b828204905092915050565b60006040820190506132436000830185612ac1565b6132506020830184612ac1565b9392505050565b7f416c6c6f77616e63652072657175697265640000000000000000000000000000600082015250565b600061328d601283612dfe565b915061329882613257565b602082019050919050565b600060208201905081810360008301526132bc81613280565b9050919050565b7f4c6f772062616c616e6365000000000000000000000000000000000000000000600082015250565b60006132f9600b83612dfe565b9150613304826132c3565b602082019050919050565b60006020820190508181036000830152613328816132ec565b9050919050565b60006060820190506133446000830186612ac1565b6133516020830185612ac1565b61335e6040830184612ad0565b949350505050565b600061337182612aaf565b9050919050565b61338181613366565b811461338c57600080fd5b50565b60008151905061339e81613378565b92915050565b6000602082840312156133ba576133b9612a22565b5b60006133c88482850161338f565b91505092915050565b600080fd5b6000601f19601f8301169050919050565b7f4e487b7100000000000000000000000000000000000000000000000000000000600052604160045260246000fd5b61341f826133d6565b810181811067ffffffffffffffff8211171561343e5761343d6133e7565b5b80604052505050565b6000613451612a18565b905061345d8282613416565b919050565b600067ffffffffffffffff82111561347d5761347c6133e7565b5b602082029050602081019050919050565b600080fd5b6000815190506134a281612c54565b92915050565b60006134bb6134b684613462565b613447565b905080838252602082019050602084028301858111156134de576134dd61348e565b5b835b8181101561350757806134f38882613493565b8452602084019350506020810190506134e0565b5050509392505050565b600082601f830112613526576135256133d1565b5b81516135368482602086016134a8565b91505092915050565b60006020828403121561355557613554612a22565b5b600082015167ffffffffffffffff81111561357357613572612a27565b5b61357f84828501613511565b91505092915050565b7f4e487b7100000000000000000000000000000000000000000000000000000000600052603260045260246000fd5b60006135c282612a2c565b91507fffffffffffffffffffffffffffffffffffffffffffffffffffffffffffffffff82036135f4576135f3612f75565b5b600182019050919050565b7f4f6e6c79207769746e6573732063616e2063616c6c2074686973000000000000600082015250565b6000613635601a83612dfe565b9150613640826135ff565b602082019050919050565b6000602082019050818103600083015261366481613628565b9050919050565b7f6e6f207265776172647320746f206c6971697569646174650000000000000000600082015250565b60006136a1601883612dfe565b91506136ac8261366b565b602082019050919050565b600060208201905081810360008301526136d081613694565b9050919050565b60006060820190506136ec6000830186612ac1565b6136f96020830185612ad0565b6137066040830184612ad0565b949350505050565b7f596f7520617265206e6f74206c656e6465722100000000000000000000000000600082015250565b6000613744601383612dfe565b915061374f8261370e565b602082019050919050565b6000602082019050818103600083015261377381613737565b9050919050565b7f4e6f7420656e6f7567682062616c616e636520696e207661756c740000000000600082015250565b60006137b0601b83612dfe565b91506137bb8261377a565b602082019050919050565b600060208201905081810360008301526137df816137a3565b9050919050565b7f4e6f7420656e6f7567682062616c6e63652074787420746f20626f72726f772060008201527f6c6f616e00000000000000000000000000000000000000000000000000000000602082015250565b6000613842602483612dfe565b915061384d826137e6565b604082019050919050565b6000602082019050818103600083015261387181613835565b905091905056fea2646970667358221220e32794951095d0956d2d19961c7d9882727161624a784054464f52110ebcbdbe64736f6c63430008140033",
  "linkReferences": {},
  "deployedLinkReferences": {}
}